{
  "_format": "hh-sol-artifact-1",
  "contractName": "DonationsRecord",
  "sourceName": "contracts/Donations.sol",
  "abi": [
    {
      "anonymous": false,
      "inputs": [
        {
          "indexed": false,
          "internalType": "string",
          "name": "donationId",
          "type": "string"
        },
        {
          "indexed": false,
          "internalType": "string",
          "name": "campaignId",
          "type": "string"
        },
        {
          "indexed": false,
          "internalType": "string",
          "name": "paymentRef",
          "type": "string"
        },
        {
          "indexed": false,
          "internalType": "uint256",
          "name": "amount",
          "type": "uint256"
        },
        {
          "indexed": false,
          "internalType": "string",
          "name": "currency",
          "type": "string"
        },
        {
          "indexed": false,
          "internalType": "bytes32",
          "name": "donationHash",
          "type": "bytes32"
        },
        {
          "indexed": false,
          "internalType": "uint256",
          "name": "confirmedAt",
          "type": "uint256"
        }
      ],
      "name": "DonationStored",
      "type": "event"
    },
    {
      "inputs": [
        {
          "internalType": "string",
          "name": "donationId",
          "type": "string"
        }
      ],
      "name": "getDonation",
      "outputs": [
        {
          "components": [
            {
              "internalType": "string",
              "name": "donationId",
              "type": "string"
            },
            {
              "internalType": "string",
              "name": "campaignId",
              "type": "string"
            },
            {
              "internalType": "string",
              "name": "paymentRef",
              "type": "string"
            },
            {
              "internalType": "uint256",
              "name": "amount",
              "type": "uint256"
            },
            {
              "internalType": "string",
              "name": "currency",
              "type": "string"
            },
            {
              "internalType": "bytes32",
              "name": "donationHash",
              "type": "bytes32"
            },
            {
              "internalType": "uint256",
              "name": "confirmedAt",
              "type": "uint256"
            }
          ],
          "internalType": "struct DonationsRecord.Donation",
          "name": "",
          "type": "tuple"
        }
      ],
      "stateMutability": "view",
      "type": "function"
    },
    {
      "inputs": [],
      "name": "getDonationCount",
      "outputs": [
        {
          "internalType": "uint256",
          "name": "",
          "type": "uint256"
        }
      ],
      "stateMutability": "view",
      "type": "function"
    },
    {
      "inputs": [],
      "name": "getDonationIds",
      "outputs": [
        {
          "internalType": "string[]",
          "name": "",
          "type": "string[]"
        }
      ],
      "stateMutability": "view",
      "type": "function"
    },
    {
      "inputs": [
        {
          "internalType": "string",
          "name": "donationId",
          "type": "string"
        },
        {
          "internalType": "string",
          "name": "campaignId",
          "type": "string"
        },
        {
          "internalType": "string",
          "name": "paymentRef",
          "type": "string"
        },
        {
          "internalType": "uint256",
          "name": "amount",
          "type": "uint256"
        },
        {
          "internalType": "string",
          "name": "currency",
          "type": "string"
        },
        {
          "internalType": "bytes32",
          "name": "donationHash",
          "type": "bytes32"
        },
        {
          "internalType": "uint256",
          "name": "confirmedAt",
          "type": "uint256"
        }
      ],
      "name": "storeDonation",
      "outputs": [],
      "stateMutability": "nonpayable",
      "type": "function"
    }
  ],
  "bytecode": "0x6080806040523461001657610c7e908161001c8239f35b600080fdfe608080604052600436101561001357600080fd5b60003560e01c90816335c31e7c146102da575080635adce3321461016f5780638d721a4e1461006e5763e55a62a81461004b57600080fd5b34610069576000366003190112610069576020600154604051908152f35b600080fd5b3461006957600036600319011261006957600180546001600160401b0381116101595790602090604051916100a8818560051b0184610a6b565b83835280830193846001600052600080516020610c298339815191526000915b8383106101305750505050604051928184019082855251809152604084019160408260051b86010195926000905b8382106101035786880387f35b9091929394838061011f839a603f198b82030186528951610a10565b9997019594939190910191016100f6565b90858086819a989594610145859b999b610b83565b8152019201920192509694969593956100c8565b634e487b7160e01b600052604160045260246000fd5b346100695760208060031936011261006957600435906001600160401b038211610069576101a360e09236906004016109e3565b82604051926101b184610a50565b600060c0606095868152868582015286604082015282878201528660808201528260a0820152015282604051938492833781016000815203019020906102c9604051916101fd83610a50565b61020684610b83565b835261021460018501610b83565b85840190815261022660028601610b83565b91604085019283526102b260038701549382870194855261024960048901610b83565b92608088019384526102a161028b600660058c01549b60a08c019c8d5201549960c081019a8b526040519d8d8f9e928f938452519201526101008d0190610a10565b9551601f198c8803810160408e01529690610a10565b915190858b840301908b0152610a10565b9251608088015251908683030160a0870152610a10565b915160c08401525160e08301520390f35b346100695760e0366003190112610069576004356001600160401b0381116100695761030a9036906004016109e3565b6024356001600160401b038111610069576103299036906004016109e3565b906044356001600160401b038111610069576103499036906004016109e3565b9091608435936001600160401b0385116100695761036d60069536906004016109e3565b959098878982376020818981016000815203019020015461099e5760405161039481610a50565b61039f36888a610a8c565b81526103ac368385610a8c565b60208201526103bc368587610a8c565b604082015260643560608201526103d436878b610a8c565b608082015260a43560a082015260c43560c08201526040518789823760208189810160008152030190209080518051906001600160401b03821161015957610426826104208654610ad2565b86610b0c565b602090601f831160011461093257610457929160009183610843575b50508160011b916000199060031b1c19161790565b82555b60208101518051906001600160401b0382116101595761048a826104816001870154610ad2565b60018701610b0c565b602090601f83116001146108c0576104ba9291600091836108435750508160011b916000199060031b1c19161790565b60018301555b60408101518051906001600160401b038211610159576104f0826104e76002870154610ad2565b60028701610b0c565b602090601f831160011461084e576105209291600091836108435750508160011b916000199060031b1c19161790565b60028301555b6060810151600383015560808101518051906001600160401b03821161015957610560826105576004870154610ad2565b60048701610b0c565b602090601f83116001146107ce578260c09360069593610596936000926107c35750508160011b916000199060031b1c19161790565b60048501555b60a081015160058501550151910155600154680100000000000000008110156101595760018101806001558110156107ad5760016000526001600160401b03871161015957610615876105ff83600080516020610c298339815191520154610ad2565b83600080516020610c2983398151915201610b0c565b6000601f88116001146106f2576106bc937ff1045b289228c6ce9e91db3b2b9234797adfbc9e351ca7e9481e537b6defcf309a96936106d29896936106768b806106ae968f6000926106e75750508160011b916000199060031b1c19161790565b90600080516020610c2983398151915201555b6106a06040519b8c9b60e08d5260e08d0191610b62565b918a830360208c0152610b62565b918783036040890152610b62565b9160643560608601528483036080860152610b62565b60a43560a083015260c43560c08301520390a1005b01359050388f610442565b81600080516020610c298339815191520160005260206000209060005b601f198a1681106107955750937ff1045b289228c6ce9e91db3b2b9234797adfbc9e351ca7e9481e537b6defcf309a96936106d29896936106ae938c6106bc988d601f1981161061077b575b50505060018b811b0190600080516020610c298339815191520155610689565b013560001960038e901b60f8161c191690558d8c8161075b565b9091602060018192858e01358155019301910161070f565b634e487b7160e01b600052603260045260246000fd5b015190508f80610442565b906004850160005260206000209160005b601f198516811061082b5750926006949260019260c09583601f19811610610812575b505050811b01600485015561059c565b015160001960f88460031b161c191690558e8080610802565b919260206001819286850151815501940192016107df565b015190508d80610442565b9190600285016000526020600020906000935b601f19841685106108a5576001945083601f1981161061088c575b505050811b016002830155610526565b015160001960f88460031b161c191690558c808061087c565b81810151835560209485019460019093019290910190610861565b9190600185016000526020600020906000935b601f1984168510610917576001945083601f198116106108fe575b505050811b0160018301556104c0565b015160001960f88460031b161c191690558c80806108ee565b818101518355602094850194600190930192909101906108d3565b9190846000526020600020906000935b601f1984168510610983576001945083601f1981161061096a575b505050811b01825561045a565b015160001960f88460031b161c191690558c808061095d565b81810151835560209485019460019093019290910190610942565b60405162461bcd60e51b815260206004820152601760248201527f446f6e6174696f6e20616c7265616479206578697374730000000000000000006044820152606490fd5b9181601f84011215610069578235916001600160401b038311610069576020838186019501011161006957565b919082519283825260005b848110610a3c575050826000602080949584010152601f8019910116010190565b602081830181015184830182015201610a1b565b60e081019081106001600160401b0382111761015957604052565b90601f801991011681019081106001600160401b0382111761015957604052565b9291926001600160401b0382116101595760405191610ab5601f8201601f191660200184610a6b565b829481845281830111610069578281602093846000960137010152565b90600182811c92168015610b02575b6020831014610aec57565b634e487b7160e01b600052602260045260246000fd5b91607f1691610ae1565b90601f8111610b1a57505050565b6000916000526020600020906020601f850160051c83019410610b58575b601f0160051c01915b828110610b4d57505050565b818155600101610b41565b9092508290610b38565b908060209392818452848401376000828201840152601f01601f1916010190565b90604051918260008254610b9681610ad2565b90818452602094600191600181169081600014610c065750600114610bc7575b505050610bc592500383610a6b565b565b600090815285812095935091905b818310610bee575050610bc59350820101388080610bb6565b85548884018501529485019487945091830191610bd5565b92505050610bc594925060ff191682840152151560051b820101388080610bb656feb10e2d527612073b26eecdfd717e6a320cf44b4afac2b0732d9fcbe2b7fa0cf6a26469706673582212200eba9ffe3aa1b1f7f9eab9afe715cff5812c7a0902c15a7c1c44b9ead1f8489764736f6c63430008180033",
  "linkReferences": {},
  "deployedLinkReferences": {}
}